:100000000C9461000C947E000C947E000C947E0095
:100010000C947E000C947E000C947E000C947E0068
:100020000C947E000C947E000C947E000C947E0058
:100030000C947E000C947E000C947E000C947E0048
:100040000C949B000C947E000C947E000C947E001B
:100050000C947E000C947E000C947E000C947E0028
:100060000C947E000C947E00000000002400270009
:100070002A0000000000250028002B0000000000DE
:1000800023002600290004040404040404040202DA
:100090000202020203030303030301020408102007
:1000A0004080010204081020010204081020000012
:1000B0000007000201000003040600000000000029
:1000C000000011241FBECFEFD8E0DEBFCDBF11E08E
:1000D000A0E0B1E0E4EAF4E002C005900D92A230A5
:1000E000B107D9F711E0A2E0B1E001C01D92A03143
:1000F000B107E1F70E9494000C9450020C940000A8
:1001000080E00E944501909303018093020164E026
:1001100070E00E94290289E00E946301089589E04D
:1001200061E00E94BC0108950E940B010E948F00B3
:100130000E948000FDCF1F920F920FB60F921124E4
:100140002F938F939F93AF93BF93809104019091CE
:100150000501A0910601B09107010196A11DB11DF5
:100160008093040190930501A0930601B0930701C9
:100170008091080190910901A0910A01B0910B01B1
:100180008050904CAF4FBF4F80930801909309016E
:10019000A0930A01B0930B0127C0809108019091B0
:1001A0000901A0910A01B0910B0180589E43A04023
:1001B000B0408093080190930901A0930A01B09385
:1001C0000B0180910C0190910D01A0910E01B09155
:1001D0000F010196A11DB11D80930C0190930D019B
:1001E000A0930E01B0930F01809108019091090135
:1001F000A0910A01B0910B0181589E43A040B040EC
:1002000060F6BF91AF919F918F912F910F900FBE8C
:100210000F901F901895789484B5826084BD84B542
:10022000816084BD85B5826085BD85B5816085BDF1
:10023000EEE6F0E0808181608083E1E8F0E080819B
:1002400082608083808181608083E0E8F0E080814B
:1002500081608083E1EBF0E0808184608083E0EB6B
:10026000F0E0808181608083EAE7F0E08081846053
:1002700080838081826080838081816080838081AF
:10028000806880831092C10008958770909100016A
:100290009295990F990F907C982B90937C00809168
:1002A0007A00806480937A0080917A0086FDFCCF8A
:1002B0002091780040917900942F80E030E0282B45
:1002C000392BC90108951F93CF93DF93182FEB01AA
:1002D00061E00E94BC01E12FF0E0E255FF4F849104
:1002E000833051F480918000806880938000D093A7
:1002F0008900C09388003CC0843051F48091800014
:10030000806280938000D0938B00C0938A0030C0BD
:10031000813039F4209729F184B5806884BDC7BD48
:1003200027C0823039F42097E1F084B5806284BD23
:10033000C8BD1EC0863041F48091B00080688093B3
:10034000B000C093B30014C0873041F48091B00076
:1003500080628093B000C093B4000AC0C038D10559
:100360001CF4812F60E002C0812F61E00E94DC015B
:10037000DF91CF911F910895282F30E0C901865653
:100380009F4FFC0194912A573F4FF9018491882394
:1003900091F0E82FF0E0EE0FFF1FE859FF4FA59115
:1003A000B491662329F48C91909589238C930895B8
:1003B0008C91892B8C930895482F50E0CA01825567
:1003C0009F4FFC012491CA0186569F4FFC019491D6
:1003D0004A575F4FFA0134913323D1F1222331F18F
:1003E000233021F4809180008F7705C0243031F4D0
:1003F000809180008F7D8093800018C0213019F497
:1004000084B58F7704C0223021F484B58F7D84BDFC
:100410000DC0263021F48091B0008F7705C02730C1
:1004200029F48091B0008F7D8093B000E32FF0E03D
:10043000EE0FFF1FEE58FF4FA591B491662329F4EC
:100440008C91909589238C9308958C91892B8C9312
:10045000089597FB092E07260AD077FD04D00CD00B
:1004600006D000201AF4709561957F4F0895F6F735
:10047000909581959F4F0895AA1BBB1B51E107C022
:10048000AA1FBB1FA617B70710F0A61BB70B881F24
:10049000991F5A95A9F780959095BC01CD010895B3
:0404A000F894FFCFFE
:0204A400010055
:00000001FF
