:100000000C9461000C947E000C947E000C947E0095
:100010000C947E000C947E000C947E000C947E0068
:100020000C947E000C947E000C947E000C947E0058
:100030000C947E000C947E000C947E000C947E0048
:100040000C94C7000C947E000C947E000C947E00EF
:100050000C947E000C947E000C947E000C947E0028
:100060000C947E000C947E00000000002400270009
:100070002A0000000000250028002B0000000000DE
:1000800023002600290004040404040404040202DA
:100090000202020203030303030301020408102007
:1000A0004080010204081020010204081020000012
:1000B0000007000201000003040600000000000029
:1000C000000011241FBECFEFD8E0DEBFCDBF11E08E
:1000D000A0E0B1E0E6ECF4E002C005900D92A030A3
:1000E000B107D9F711E0A0E0B1E001C01D92AE3038
:1000F000B107E1F70E94C0000C9461020C9400006B
:10010000109201011092000112C089E00E949B012F
:100110006AE070E080E090E00E9437018091000189
:1001200090910101019690930101809300016091EB
:100130000001709101016F3F71053CF38FEF90E07A
:100140000EC089E00E949B016AE070E080E090E0D0
:100150000E943701809100019091010101979093D5
:100160000101809300016091000170910101161658
:1001700017063CF3089589E061E00E94F4010895B8
:100180000E9461010E94BB000E948000FDCF1F926F
:100190000F920FB60F9211242F938F939F93AF93CB
:1001A000BF938091020190910301A0910401B0914D
:1001B00005010196A11DB11D8093020190930301D9
:1001C000A0930401B093050180910601909107016D
:1001D000A0910801B09109018050904CAF4FBF4FE2
:1001E0008093060190930701A0930801B093090141
:1001F00027C08091060190910701A0910801B0915C
:10020000090180589E43A040B0408093060190931E
:100210000701A0930801B093090180910A01909110
:100220000B01A0910C01B0910D010196A11DB11D12
:1002300080930A0190930B01A0930C01B0930D01E0
:100240008091060190910701A0910801B0910901E8
:1002500081589E43A040B04060F6BF91AF919F91FE
:100260008F912F910F900FBE0F901F901895EF92C6
:10027000FF920F931F937B018C018FB7F8944091ED
:100280000A0150910B0160910C0170910D018FBF1B
:100290002FB7F89480910A0190910B01A0910C0165
:1002A000B0910D012FBF841B950BA60BB70BE81661
:1002B000F9060A071B0760F71F910F91FF90EF9057
:1002C0000895789484B5826084BD84B5816084BDCE
:1002D00085B5826085BD85B5816085BDEEE6F0E0BF
:1002E000808181608083E1E8F0E0808182608083AA
:1002F000808181608083E0E8F0E08081816080839C
:10030000E1EBF0E0808184608083E0EBF0E08081CD
:1003100081608083EAE7F0E080818460808380816F
:100320008260808380818160808380818068808317
:100330001092C10008951F93CF93DF93182FEB0104
:1003400061E00E94F401E12FF0E0E255FF4F84915B
:10035000833051F480918000806880938000D09336
:100360008900C09388003CC0843051F480918000A3
:10037000806280938000D0938B00C0938A0030C04D
:10038000813039F4209729F184B5806884BDC7BDD8
:1003900027C0823039F42097E1F084B5806284BDB3
:1003A000C8BD1EC0863041F48091B0008068809343
:1003B000B000C093B30014C0873041F48091B00006
:1003C00080628093B000C093B4000AC0C038D105E9
:1003D0001CF4812F60E002C0812F61E00E941402B2
:1003E000DF91CF911F910895282F30E0C9018656E3
:1003F0009F4FFC0194912A573F4FF9018491882324
:1004000091F0E82FF0E0EE0FFF1FE859FF4FA591A4
:10041000B491662329F48C91909589238C93089547
:100420008C91892B8C930895482F50E0CA018255F6
:100430009F4FFC012491CA0186569F4FFC01949165
:100440004A575F4FFA0134913323D1F1222331F11E
:10045000233021F4809180008F7705C0243031F45F
:10046000809180008F7D8093800018C0213019F426
:1004700084B58F7704C0223021F484B58F7D84BD8C
:100480000DC0263021F48091B0008F7705C0273051
:1004900029F48091B0008F7D8093B000E32FF0E0CD
:1004A000EE0FFF1FEE58FF4FA591B491662329F47C
:1004B0008C91909589238C9308958C91892B8C93A2
:0604C0000895F894FFCF3F
:00000001FF
