:100000000C9461000C947E000C947E000C947E0095
:100010000C947E000C947E000C947E000C947E0068
:100020000C947E000C947E000C947E000C947E0058
:100030000C947E000C947E000C947E000C947E0048
:100040000C94D1000C947E000C947E000C947E00E5
:100050000C947E000C947E000C947E000C947E0028
:100060000C947E000C947E00000000002400270009
:100070002A0000000000250028002B0000000000DE
:1000800023002600290004040404040404040202DA
:100090000202020203030303030301020408102007
:1000A0004080010204081020010204081020000012
:1000B0000007000201000003040600000000000029
:1000C000000011241FBECFEFD8E0DEBFCDBF11E08E
:1000D000A0E0B1E0E8E2F5E002C005900D92A430A6
:1000E000B107D9F711E0A4E0B1E001C01D92A2313F
:1000F000B107E1F70E94CA000C9492020C94000030
:100100006AE070E080E090E00E944101809104018B
:100110009091050101969093050180930401019748
:100120006FEF70E00E946B02BC0189E00E94A501A4
:1001300080910001909101010196909301018093BB
:10014000000101976FEF70E00E946B02BC018AE032
:100150000E94A50180910201909103010196909364
:1001600003018093020101976FEF70E00E946B0220
:10017000BC018BE00E94A501089589E061E00E9426
:10018000FE018AE061E00E94FE018BE061E00E94D6
:10019000FE0108950E946B010E94BD000E94800034
:1001A000FDCF1F920F920FB60F9211242F938F93B2
:1001B0009F93AF93BF938091060190910701A09107
:1001C0000801B09109010196A11DB11D809306019E
:1001D00090930701A0930801B093090180910A014F
:1001E00090910B01A0910C01B0910D018050904CA9
:1001F000AF4FBF4F80930A0190930B01A0930C0166
:10020000B0930D0127C080910A0190910B01A0913C
:100210000C01B0910D0180589E43A040B0408093E6
:100220000A0190930B01A0930C01B0930D018091F2
:100230000E0190910F01A0911001B0911101019652
:10024000A11DB11D80930E0190930F01A093100189
:10025000B093110180910A0190910B01A0910C01C2
:10026000B0910D0181589E43A040B04060F6BF910F
:10027000AF919F918F912F910F900FBE0F901F9074
:100280001895EF92FF920F931F937B018C018FB70C
:10029000F89440910E0150910F01609110017091FE
:1002A00011018FBF2FB7F89480910E0190910F012B
:1002B000A0911001B09111012FBF841B950BA60BCB
:1002C000B70BE816F9060A071B0760F71F910F9195
:1002D000FF90EF900895789484B5826084BD84B5D2
:1002E000816084BD85B5826085BD85B5816085BD31
:1002F000EEE6F0E0808181608083E1E8F0E08081DB
:1003000082608083808181608083E0E8F0E080818A
:1003100081608083E1EBF0E0808184608083E0EBAA
:10032000F0E0808181608083EAE7F0E08081846092
:1003300080838081826080838081816080838081EE
:10034000806880831092C10008951F93CF93DF933C
:10035000182FEB0161E00E94FE01E12FF0E0E25571
:10036000FF4F8491833051F48091800080688093A6
:100370008000D0938900C09388003CC0843051F441
:1003800080918000806280938000D0938B00C09326
:100390008A0030C0813039F4209729F184B5806813
:1003A00084BDC7BD27C0823039F42097E1F084B501
:1003B000806284BDC8BD1EC0863041F48091B0000B
:1003C00080688093B000C093B30014C0873041F4BC
:1003D0008091B00080628093B000C093B4000AC0E6
:1003E000C038D1051CF4812F60E002C0812F61E08C
:1003F0000E941E02DF91CF911F910895282F30E0B7
:10040000C90186569F4FFC0194912A573F4FF9012D
:100410008491882391F0E82FF0E0EE0FFF1FE85958
:10042000FF4FA591B491662329F48C91909589236F
:100430008C9308958C91892B8C930895482F50E0CC
:10044000CA0182559F4FFC012491CA0186569F4FD5
:10045000FC0194914A575F4FFA0134913323D1F153
:10046000222331F1233021F4809180008F7705C061
:10047000243031F4809180008F7D8093800018C0FB
:10048000213019F484B58F7704C0223021F484B56B
:100490008F7D84BD0DC0263021F48091B0008F7710
:1004A00005C0273029F48091B0008F7D8093B00083
:1004B000E32FF0E0EE0FFF1FEE58FF4FA591B49130
:1004C000662329F48C91909589238C9308958C91BF
:1004D000892B8C93089597FB092E07260AD077FD68
:1004E00004D00CD006D000201AF4709561957F4F8F
:1004F0000895F6F7909581959F4F0895AA1BBB1B11
:1005000051E107C0AA1FBB1FA617B70710F0A61B13
:10051000B70B881F991F5A95A9F780959095BC0134
:08052000CD010895F894FFCF0E
:040528006400C800A3
:00000001FF
