:100000000C9461000C947E000C947E000C947E0095
:100010000C947E000C947E000C947E000C947E0068
:100020000C947E000C947E000C947E000C947E0058
:100030000C947E000C947E000C947E000C947E0048
:100040000C9416010C947E000C947E000C947E009F
:100050000C947E000C947E000C947E000C947E0028
:100060000C947E000C947E00000000002400270009
:100070002A0000000000250028002B0000000000DE
:1000800023002600290004040404040404040202DA
:100090000202020203030303030301020408102007
:1000A0004080010204081020010204081020000012
:1000B0000007000201000003040600000000000029
:1000C000000011241FBECFEFD8E0DEBFCDBF11E08E
:1000D000A0E0B1E0EEE1F6E002C005900D92A230A2
:1000E000B107D9F711E0A2E0B1E001C01D92A8313B
:1000F000B107E1F70E940F010C940D030C9400006E
:1001000087E00E94BE029C0190930301809302014C
:100110008130910501F58091040190910501892BB1
:10012000D1F48091060190910701281B390B30937F
:100130000701209306010E948601609308017093D5
:10014000090180930A0190930B016AE070E080E05E
:1001500090E00E9494018091020190910301019727
:1001600009F03AC080910401909105010197A1F531
:100170008091060190910701019771F50E94860117
:10018000209108013091090140910A0150910B0121
:10019000621B730B840B950B655F71408040904030
:1001A000D8F0809100019091010101969093010196
:1001B0008093000164E170E080E090E00E9494018F
:1001C00080910001909101018F3F910529F024F069
:1001D000109201011092000180910201909103019F
:1001E000909305018093040180910601909107018D
:1001F000019731F4609100017091010189E003C021
:1002000089E060E070E00E94F801089589E061E013
:100210000E94510287E060E00E94510208950E940E
:10022000BE010E9406010E948000FDCF1F920F9226
:100230000FB60F9211242F938F939F93AF93BF9379
:1002400080910C0190910D01A0910E01B0910F01D0
:100250000196A11DB11D80930C0190930D01A093F7
:100260000E01B0930F018091100190911101A091A6
:100270001201B09113018050904CAF4FBF4F80934B
:10028000100190931101A0931201B093130127C0A4
:100290008091100190911101A0911201B091130170
:1002A00080589E43A040B04080931001909311016C
:1002B000A0931201B0931301809114019091150144
:1002C000A0911601B09117010196A11DB11D809357
:1002D000140190931501A0931601B093170180911A
:1002E000100190911101A0911201B0911301815858
:1002F0009E43A040B04060F6BF91AF919F918F9117
:100300002F910F900FBE0F901F9018958FB7F894F4
:10031000209114013091150140911601509117015F
:100320008FBFB901CA010895EF92FF920F931F93F7
:100330007B018C018FB7F894409114015091150105
:1003400060911601709117018FBF2FB7F8948091BB
:10035000140190911501A0911601B09117012FBFC2
:10036000841B950BA60BB70BE816F9060A071B07AB
:1003700060F71F910F91FF90EF900895789484B5E6
:10038000826084BD84B5816084BD85B5826085BD91
:1003900085B5816085BDEEE6F0E080818160808377
:1003A000E1E8F0E0808182608083808181608083E9
:1003B000E0E8F0E0808181608083E1EBF0E0808123
:1003C00084608083E0EBF0E0808181608083EAE7F5
:1003D000F0E080818460808380818260808380817E
:1003E000816080838081806880831092C10008953D
:1003F0001F93CF93DF93182FEB0161E00E9451020E
:10040000E12FF0E0E255FF4F8491833051F4809169
:100410008000806880938000D0938900C09388001A
:100420003CC0843051F480918000806280938000D1
:10043000D0938B00C0938A0030C0813039F420976C
:1004400029F184B5806884BDC7BD27C0823039F4E6
:100450002097E1F084B5806284BDC8BD1EC086309F
:1004600041F48091B00080688093B000C093B300E5
:1004700014C0873041F48091B00080628093B00056
:10048000C093B4000AC0C038D1051CF4812F60E0CD
:1004900002C0812F61E00E947102DF91CF911F9114
:1004A0000895282F30E0C90186569F4FFC01949192
:1004B0002A573F4FF9018491882391F0E82FF0E00B
:1004C000EE0FFF1FE859FF4FA591B491662329F461
:1004D0008C91909589238C9308958C91892B8C9382
:1004E0000895482F50E0CA0182559F4FFC01249186
:1004F000CA0186569F4FFC0194914A575F4FFA01FB
:1005000034913323D1F1222331F1233021F480912E
:1005100080008F7705C0243031F4809180008F7D7A
:100520008093800018C0213019F484B58F7704C0FF
:10053000223021F484B58F7D84BD0DC0263021F496
:100540008091B0008F7705C0273029F48091B000EA
:100550008F7D8093B000E32FF0E0EE0FFF1FEE5889
:10056000FF4FA591B491662329F48C91909589232E
:100570008C9308958C91892B8C930895682F70E04B
:10058000CB0182559F4FFC012491CB0186569F4F92
:10059000FC0144916A577F4FFB019491992319F410
:1005A00020E030E038C0222331F1233021F4809163
:1005B00080008F7705C0243031F4809180008F7DDA
:1005C0008093800018C0213019F484B58F7704C05F
:1005D000223021F484B58F7D84BD0DC0263021F4F6
:1005E0008091B0008F7705C0273029F48091B0004A
:1005F0008F7D8093B000892F90E0880F991F8458D9
:100600009F4FFC01A591B4918C9120E030E08423B0
:0E06100011F021E030E0C9010895F894FFCF09
:02061E0080005A
:00000001FF
