:100000000C9461000C947E000C947E000C947E0095
:100010000C947E000C947E000C947E000C947E0068
:100020000C947E000C947E000C947E000C947E0058
:100030000C947E000C947E000C947E000C947E0048
:100040000C9403010C947E000C947E000C947E00B2
:100050000C947E000C947E000C947E000C947E0028
:100060000C947E000C947E00000000002400270009
:100070002A0000000000250028002B0000000000DE
:1000800023002600290004040404040404040202DA
:100090000202020203030303030301020408102007
:1000A0004080010204081020010204081020000012
:1000B0000007000201000003040600000000000029
:1000C000000011241FBECFEFD8E0DEBFCDBF11E08E
:1000D000A0E0B1E0ECEDF5E002C005900D92A0309B
:1000E000B107D9F711E0A0E0B1E001C01D92A43141
:1000F000B107E1F70E94FC000C94EC020C940000A4
:10010000109201011092000112C089E00E94D701F3
:100110006AE070E080E090E00E947301809100014D
:1001200090910101019690930101809300016091EB
:100130000001709101016F3F71053CF38FEF90E07A
:100140000EC089E00E94D7016AE070E080E090E094
:100150000E94730180910001909101010197909399
:100160000101809300016091000170910101161658
:1001700017063CF3089587E00E949D029C0190932E
:1001800003018093020181309105B1F48091040153
:1001900090910501892B81F48091060190910701CE
:1001A000281B390B30930701209306016AE070E0A9
:1001B00080E090E00E947301809102019091030120
:1001C00090930501809304018091060190910701AD
:1001D000019719F40E948000089589E061E070E0C1
:1001E0000E94D701089589E061E00E94300287E013
:1001F00060E00E94300208950E949D010E94F30079
:100200000E94BB00FDCF1F920F920FB60F921124D8
:100210002F938F939F93AF93BF93809108019091F9
:100220000901A0910A01B0910B010196A11DB11D18
:100230008093080190930901A0930A01B0930B01E8
:1002400080910C0190910D01A0910E01B0910F01D0
:100250008050904CAF4FBF4F80930C0190930D0195
:10026000A0930E01B0930F0127C080910C019091D3
:100270000D01A0910E01B0910F0180589E43A04046
:10028000B04080930C0190930D01A0930E01B093A8
:100290000F018091100190911101A0911201B09174
:1002A00013010196A11DB11D8093100190931101BE
:1002B000A0931201B093130180910C0190910D0154
:1002C000A0910E01B0910F0181589E43A040B04013
:1002D00060F6BF91AF919F918F912F910F900FBEBC
:1002E0000F901F901895EF92FF920F931F937B0131
:1002F0008C018FB7F89440911001509111016091D9
:100300001201709113018FBF2FB7F89480911001E3
:1003100090911101A0911201B09113012FBF841B84
:10032000950BA60BB70BE816F9060A071B0760F733
:100330001F910F91FF90EF900895789484B582609B
:1003400084BD84B5816084BD85B5826085BD85B579
:10035000816085BDEEE6F0E0808181608083E1E828
:10036000F0E0808182608083808181608083E0E82A
:10037000F0E0808181608083E1EBF0E08081846047
:100380008083E0EBF0E0808181608083EAE7F0E049
:1003900080818460808380818260808380818160AD
:1003A00080838081806880831092C10008951F93AC
:1003B000CF93DF93182FEB0161E00E943002E12F11
:1003C000F0E0E255FF4F8491833051F4809180003A
:1003D000806880938000D0938900C09388003CC0DF
:1003E000843051F480918000806280938000D093AB
:1003F0008B00C0938A0030C0813039F4209729F1F6
:1004000084B5806884BDC7BD27C0823039F4209789
:10041000E1F084B5806284BDC8BD1EC0863041F461
:100420008091B00080688093B000C093B30014C086
:10043000873041F48091B00080628093B000C09317
:10044000B4000AC0C038D1051CF4812F60E002C09E
:10045000812F61E00E945002DF91CF911F9108959A
:10046000282F30E0C90186569F4FFC0194912A57EE
:100470003F4FF9018491882391F0E82FF0E0EE0FCF
:10048000FF1FE859FF4FA591B491662329F48C9181
:10049000909589238C9308958C91892B8C93089542
:1004A000482F50E0CA0182559F4FFC012491CA0198
:1004B00086569F4FFC0194914A575F4FFA01349141
:1004C0003323D1F1222331F1233021F480918000B4
:1004D0008F7705C0243031F4809180008F7D809328
:1004E000800018C0213019F484B58F7704C0223001
:1004F00021F484B58F7D84BD0DC0263021F4809118
:10050000B0008F7705C0273029F48091B0008F7D2F
:100510008093B000E32FF0E0EE0FFF1FEE58FF4F87
:10052000A591B491662329F48C91909589238C939D
:1005300008958C91892B8C930895682F70E0CB01DE
:1005400082559F4FFC012491CB0186569F4FFC01A1
:1005500044916A577F4FFB019491992319F420E04D
:1005600030E038C0222331F1233021F48091800023
:100570008F7705C0243031F4809180008F7D809387
:10058000800018C0213019F484B58F7704C0223060
:1005900021F484B58F7D84BD0DC0263021F4809177
:1005A000B0008F7705C0273029F48091B0008F7D8F
:1005B0008093B000892F90E0880F991F84589F4F37
:1005C000FC01A591B4918C9120E030E0842311F0DE
:0C05D00021E030E0C9010895F894FFCF4D
:00000001FF
